:1004B30030313233343536373839203A2E2D3B003C
:1004C30054696D653A00B1A3BBA4C4FAB5C4D1DBCA
:1004D300BEA600BEE0C0EB3A202020202020202032
:1004E30020204D000000000000000000000000007C
:1004F30000000000000000000000000000000000F9
:1005030000000000000000000000000000000000E8
:100513000000000000000000C000000000000060B8
:100523000000000000000000E000000C000040702C
:100533000000008000000000E000001E000060706A
:1005430000000FE000000001C000603C0000E0601C
:10055300001FFFE000000003800070704000E07E99
:10056300001FE0C000000003000073C3F001C3FCE0
:100573000038E1C0000003C63C00339FF0038FC086
:100583000030C1C000003FEFFE00031CE00701CCB8
:100593000031F180000079DFBC000618C00E01FEB7
:1005A3000077F980000001B03001C619C01E7FDE5C
:1005B300006F8380000023AC600FE6F1803E7B3840
:1005C300006183000000370E000FC7B780EC633073
:1005D30000E3030000003E0E00018F3701CC6FF0F3
:1005E30000C7F70000001E0C00031E66030C7F000B
:1005F30001FFE60000001E1C00031C600219AC0092
:100603000196060000003E3E000318600019FC003E
:1006130003860E0000007E36000300C00038780019
:1006230003060C000000E667000300C000307800FA
:10063300060C0C000001C6C3807FF0C00030FE0032
:100643000E0C1C0000038183C078FF800061CF8003
:100653001C08180000060703E0001FFFE06707E01F
:100663003818F80000080E01F80007FF80CE03F8E1
:100673006000700000001801F80001FC00C001FCDC
:10068300C000700000000000000000000000000037
:1006930000006000000000000000000000000000F7
:1006A3000000000000000000000000000000000047
:1006B3000000000000000000000000100000000027
:1006C30000000000000000060000001C0000000005
:1006D30000000000000000070000001C00000000F4
:1006E30000000000000000060000000CE00001E034
:1006F300000000000000000E0000003FE000FFF0DB
:10070300003800E00000000C00000FFF8000F8F04C
:10071300003800E00000000CF0000FC7000060E0AC
:10072300003800E00000001FF000018E000060C0F0
:10073300007001C0000007FF8000018C0000E18011
:10074300007001C0000007F8000001980000DFC03E
:10075300007001C000000078000001BFE000FF004E
:1007630000600180000000FC00007FFFE000C0008B
:1007730000E00380000001FE00007FF8000000009D
:1007830000C00300000003B7000060000000003C4D
:1007930000C00300000007670000600000039FFE25
:1007A3000080020000000E638000E00001FFCF1E06
:1007B3000180060000001CE1E000C00000E39C385B
:1007C30001800600000038C1F801C00000C31830E2
:1007D300000000000000E0FCFE03800001C7186079
:1007E300000000000001DFF8FE030000018E1BE0A3
:1007F30007001C00000707800007000001FF3FE01F
:1008030007001C00000C0380000E000001F03800FC
:100813000F003C0000000300001C0000010020004A
:10082300060018000000030000380000000000006C
:10083300000000000000030000E0000000000000D2
:10084300000000000000020001C0000000000000E2
:100853000000000000000000000000000000000095
:100863000000000000000000000000000000000085
:100873000000000000000000000000000000000075
:100883000000000000000000000000000000000065
:100893000000000000000000000000000000000055
:1008A3000000000000000000000000000000000045
:1008B3000000000000000000000000000000000035
:1008C3000000000000000000000000000000000025
:1008D3000000000000000000000000000000000015
:0508E300000000000010
:100E800004140000000002080000040C0000000030
:080E9000C10004100000000085
:100E2B007F0A7E00120DC5D2B3C201752C30120C95
:100E3B00B7C201752C0C120CB7C201752C01020C38
:010E4B00B7EF
:0A0CAD0014F5828E83120394F52CD7
:100CB700200105752DF88003752DFAE52C54F0F504
:100CC7002EE52CC454F0F52FAF2D120E997F057E1B
:100CD70000120DC5AF2E120E99120DC1AF2F120EB5
:080CE700997F017E00020DC59A
:100E9900E4FEEF3392B4D2B5C2B5EF25E0FF0EBE42
:020EA90008F04F
:010EAB002224
:060DBF00D2937F017E00CB
:100DC500E4FDFCC3ED9FEC9E5015E4FBFA0BBB0064
:0F0DD500010AEB640A4A70F50DBD00010C80E4C1
:010DE40022EC
:060A01008B218A228923EB
:100A0700E4F526F527C201752C36120CB7E4F52458
:100A1700C201E5242480F52C120CB7C201752C8085
:100A2700120CB7E4F525D201AB21AA22A923052789
:100A3700E527AE2670020526120CAD0525E525C370
:100A4700941040E20524E524C3942040C3E4F52430
:100A5700C201E5242480F52C120CB7C201752C883D
:100A6700120CB7E4F525D201AB21AA22A923052749
:100A7700E527AE2670020526120CAD0525E525C330
:0D0A8700941040E20524E524C3942040C3F0
:010A9400223F
:08000300C201752C01020CB7CB
:100D5D00EF14600D14600C146010146014240470F2
:100D6D00178015ED2490F52B8013ED2488F52B803D
:100D7D000CED2498F52B8005ED2480F52BC2018513
:050D8D002B2C020CB745
:100D92008B218A228923120D5DAB21AA22A923125B
:100DA200037BFF6017D201F52C120CB774012523C7
:0D0DB200F523E43522F522120DC180DD226B
:100EAC00D201EF9004B393F52C120CB77F017E00A6
:030EBC00020DC55F
:100CEF001200037BFF7A0479C97D017F01120D92F7
:100CFF007BFF7A0479C3E4FD7F02120D927BFF7AAA
:100D0F000479D6E4FD7F03120D927BFF7A0479E715
:070D1F00E4FD7F04020D92C8
:1008E800AF8CEFFEAD8A7C00E42DF509EC3EF508EF
:1008F800E4F58CF58AAC08AD091202C17B297A5C53
:1009080079EF783F120116E4FBFA79C878421202AF
:100918001F1202FA8F0F8E0E8D0D8C0C300024C220
:10092800007D047F03120D5D7F0D120EAC7F0C124B
:100938000EAC7D057F03120D5D7F0D120EAC7F0D91
:100948000209FDE47BE87A03F9F8AF0FAE0EAD0DAE
:10095800AC0C120C69AC00AD01AE02AF03E47B64D1
:10096800FAF9F8120C698F11E47BE87A03F9F8AF09
:100978000FAE0EAD0DAC0C120C69AC00AD01AE02A1
:10098800AF03E47B64FAF9F8120C69AC00AD01AE70
:1009980002AF03E47B0AFAF9F8120C698F12E47BC0
:1009A800E87A03F9F8AF0FAE0EAD0DAC0C120C6976
:1009B800AC00AD01AE02AF03E47B0AFAF9F8120C01
:1009C80069AC00AD01AE02AF03E47B0AFAF9F81294
:1009D8000C69AF038F137D047F03120D5DAF1112F5
:1009E8000EAC7F0C120EAC7D057F03120D5DAF12AD
:0909F800120EACAF13120EAC227A
:100E4C007C64EF4E60131CEC60087D0A1DED60F6AF
:090E5C0080FAEF1F70EC1E80E922
:010E6500226A
:03000B0002000EE2
:03000E00D20032EB
:100E6600D292000000000000000000000000000018
:0A0E760000000000000000C29222FC
:100EBF00120DBFC2937FFA120DC5D2937F64020D3C
:010ECF00C55D
:100DE500E4F51D7908C29300E51DC313F51D120D29
:100DF500BF309303431D807F0A7E00120DC5D9E5E0
:020E0500AF1D1F
:010E070022C8
:020E08008F1E3B
:100E0A007908C29300E51E1392937F0A7E00120DA1
:100E1A00C5D293E51EC313F51E7F01120DC5D9E293
:010E2A0022A5
:100B9200120EBF7FCC120E087F44120E08120EBF37
:100BA2007FCC120E087FBE120E08120DE58F1C12AA
:100BB2000DE5750A008F0BE50B750B00F50AE51CB8
:100BC200420BE4AC0AAD0B1202C1E4FBFA79807865
:100BD2003D1201168F1B8E1A8D198C18E4FFFE7DB3
:100BE200207C41AB1BAA1AA919A818120116E4FB12
:0E0BF200FAF9783F1200251202FA8E0A8F0BD4
:010C000022D1
:100C0100E51775F00A84F521E51775F00A8485F07A
:100C110022752320E51675F00A84F524E51675F092
:100C21000A8485F025752620E51575F00A84F527D7
:100C3100E51575F00A8485F0287D037F02120D5DAC
:100C4100AF21120EACAF22120EAC7F0C120EACAF64
:100C510024120EACAF25120EAC7F0C120EACAF27D6
:080C6100120EACAF28020EAC2C
:03001B00020D26AD
:100D2600C0E0C0D0758D3C758BB00514E514B414C5
:100D3600217514000515E515B43C17751500051643
:100D4600E516B43C0D7516000517E517B4180375BE
:070D56001700D0D0D0E032FD
:100B2100758911758CB6E4F58A758D3C758BB0D2DB
:100B3100AFD2ABD28CD28E120E2B1200037BFF7A76
:100B41000479E8120A017FE87E03120DC5120E2B0B
:100B5100120CEF120E663091FDD28C2091FDC28CE9
:100B61001208E8E4F5A07F1EFEFDFCAB0FAA0EA95A
:100B71000DA80CD31203CF400330B609E4F5A0D27F
:100B8100A1D2A2D2A37F507E00120E4C120C018082
:010B9100C2A1
:10001E00020366E86480F8E933E83360110460F0A7
:10002E00ED33EC337009E8FCE9FDEAFEEBFF220448
:10003E0060DED3EB9FEA9EE99DE8C2E78CF0C2F743
:10004E0095F0400CE8CCF8E9CDF9EACEFAEBCFFB0F
:10005E0012033185D0F05804700320D5B3E8047034
:10006E00075002B2D502037092D5EC0460F7E4CCCF
:10007E00C0E0C398F8603B94186008400DD0E0FBD8
:10008E00020348E4FBFAC9FC8028E830E406E4C920
:10009E00FBE4CAFCE830E305E4C9CACBFCE854072C
:1000AE006010F8C3E913F9EA13FAEB13FBEC13FC37
:1000BE00D8F130F52FC3E49CFCEF9BFFEE9AFEEDDA
:1000CE0099FDD0E0FBEF4E4D4C701222DB03020384
:1000DE006DEC2CFCEF33FFEE33FEED33FDED30E730
:1000EE00EB020348EF2BFFEE3AFEED39FDD0E0FBBD
:1000FE0050130BBB0003020370ED13FDEE13FEEF66
:08010E0013FFEC13FC0203488F
:10011600EC4D6011E8497017ED33EC3304600DE4E3
:10012600FCFFFEFD22E933E8330470F80203661291
:10013600033158046009E4CC248150062850090292
:10014600037028400302036DC0E0EB4A7044B98097
:1001560006D0E0FB02035CEF4E701CBD8008EBFF8F
:10016600EAFEE9FD80EBE98DF0A4FEE5F00201FF71
:10017600E9CDF9EAFEEBFFEF89F0A4FCE5F0CE89C4
:10018600F0A42EFFE435F0CD89F0A42DFEE435F081
:100196008067EF4E7005BD80D780C3EF8BF0A4ACAF
:1001A600F0EE8BF0A42CFCE435F0F8EF8AF0A42CEA
:1001B600E5F038FCE433CB8DF0A42CFCE5F03BF8FD
:1001C600EE8AF0A42CFCE5F038F8E433CF89F0A4ED
:1001D6002CFCE5F038CF3400CE89F0A42FFFE5F0F3
:1001E6003EFEE433C98DF0A42EFEE5F039CD8AF04B
:1001F600A42FFFE5F03EFEE43DFD33D0E0FB5007C3
:100206000BBB000F020370EC2CFCEF33FFEE33FE4A
:06021600ED33FD02034878
:10021C00020370EC5D046005E85904700302036688
:10022C00120331580460F6EC4860F2EC7004FDFEE9
:10023C00FF22C860DB2481C85009C39860025006B5
:10024C0002036D9850CAF582E9294B4A7005AB82BE
:10025C0002035C75F0007C1A7880C3EF9BEE9AED7C
:10026C0099400DC3EF9BFFEE9AFEED99FDE842F02D
:10027C00DC23ACF0D0E0FFD0E0FED0E0FDAB822080
:10028C00E7101BEB60BAEC2CFCEF33FFEE33FEED0A
:10029C0033FD020348E803F830E705C0F075F000C1
:1002AC00EF2FFFEE33FEED33FD40B830E7C280AAEE
:1002BC0075F020800E75F010800575F0087D007EBD
:1002CC00007F003392D530D5031203C1EC334010BC
:1002DC00EF33FFEE33FEED33FDEC33FCD5F0ED22C6
:0E02EC00E5F0247EA2D513CC92E7CDCEFF2202
:1002FA00EDD2E7CD33EC3392D524814006E4FFFEFC
:10030A00FDFC22FCE4CFCECDCC24E0501174FF805A
:10031A00EDC3CC13CCCD13CDCE13CECF13CF0470F7
:07032A00F030D5DE0203C133
:10033100E9D2E7C933E833F892D5EDD2E7CD33EC12
:0703410033FC5002B2D5228B
:10034800EC30E7100FBF000C0EBE00080DBD000416
:100358000BEB6014A2D5EB13FCED92E7FD2274FFC2
:10036800FCFDFEFF22E480F8A2D574FF13FC7D801B
:03037800E480EF2F
:03000000020A955C
:0C0A9500787FE4F6D8FD75812F020ADCA2
:10037B00BB010689828A83E0225002E722BBFE0280
:09038B00E32289828A83E49322B3
:10039400BB010CE58229F582E5833AF583E022501E
:1003A40006E92582F8E622BBFE06E92582F8E22268
:0D03B400E58229F582E5833AF583E4932282
:100C6900C2D5E830E70FB2D5E4C39BFBE49AFAE4B6
:100C790099F9E498F8EC30E717B2D5120C9F1204F1
:100C890021E4C39BFBE49AFAE499F9E498F8800318
:100C990012042130D50DE4C39FFFE49EFEE49DFDBF
:040CA900E49CFC22A9
:0E03C100C3E49FFFE49EFEE49DFDE49CFC224D
:1003CF00EB9FF5F0EA9E42F0E99D42F0EC6480C8A5
:0603DF0064809845F02245
:100AA100020B21E493A3F8E493A34003F68001F23F
:100AB10008DFF48029E493A3F85407240CC8C33356
:100AC100C4540F4420C8834004F456800146F6DF25
:100AD100E4800B0102040810204080900E80E47E27
:100AE100019360BCA3FF543F30E509541FFEE4931A
:100AF100A360010ECF54C025E060A840B8E493A3E1
:100B0100FAE493A3F8E493A3C8C582C8CAC583CA0B
:100B1100F0A3C8C582C8CAC583CADFE9DEE780BEC3
:010E98000059
:1003E50075F008758200EF2FFFEE33FECD33CDCCCF
:1003F50033CCC58233C5829BED9AEC99E582984052
:100405000CF582EE9BFEED9AFDEC99FC0FD5F0D62E
:10041500E4CEFBE4CDFAE4CCF9A88222B800C1B958
:100425000059BA002DEC8BF084CFCECDFCE5F0CB96
:10043500F97818EF2FFFEE33FEED33FDEC33FCEBCF
:1004450033FB10D703994004EB99FB0FD8E5E4F98A
:10045500FA227818EF2FFFEE33FEED33FDEC33FC77
:10046500C933C910D7059BE99A4007EC9BFCE99A6B
:10047500F90FD8E0E4C9FAE4CCFB2275F010EF2FB0
:10048500FFEE33FEED33FDCC33CCC833C810D707B0
:100495009BEC9AE899400AED9BFDEC9AFCE899F8EB
:0E04A5000FD5F0DAE4CDFBE4CCFAE4C8F9227E
:00000001FF
